{
  "contractName": "Challan",
  "abi": [
    {
      "constant": true,
      "inputs": [],
      "name": "chalanCount",
      "outputs": [
        {
          "name": "",
          "type": "uint256"
        }
      ],
      "payable": false,
      "stateMutability": "view",
      "type": "function",
      "signature": "0xea30d94f"
    },
    {
      "inputs": [],
      "payable": false,
      "stateMutability": "nonpayable",
      "type": "constructor",
      "signature": "constructor"
    },
    {
      "constant": false,
      "inputs": [
        {
          "name": "c_no",
          "type": "uint256"
        },
        {
          "name": "_vnp",
          "type": "string"
        },
        {
          "name": "_d",
          "type": "string"
        },
        {
          "name": "_vt",
          "type": "uint256"
        },
        {
          "name": "_fa",
          "type": "uint256"
        },
        {
          "name": "_dn",
          "type": "string"
        },
        {
          "name": "_dc",
          "type": "string"
        },
        {
          "name": "_oc",
          "type": "string"
        },
        {
          "name": "_wi",
          "type": "uint256"
        },
        {
          "name": "_dd",
          "type": "string"
        },
        {
          "name": "_cd",
          "type": "string"
        },
        {
          "name": "_aa",
          "type": "uint256"
        }
      ],
      "name": "add_Chalan",
      "outputs": [
        {
          "name": "",
          "type": "uint256"
        }
      ],
      "payable": false,
      "stateMutability": "nonpayable",
      "type": "function",
      "signature": "0x7399b2a8"
    },
    {
      "constant": false,
      "inputs": [
        {
          "name": "_lan",
          "type": "uint256"
        },
        {
          "name": "_lad",
          "type": "uint256"
        },
        {
          "name": "_lon",
          "type": "uint256"
        },
        {
          "name": "_lod",
          "type": "uint256"
        },
        {
          "name": "_f",
          "type": "string"
        }
      ],
      "name": "add_Cordinates",
      "outputs": [
        {
          "name": "",
          "type": "uint256"
        }
      ],
      "payable": false,
      "stateMutability": "nonpayable",
      "type": "function",
      "signature": "0x450fa376"
    },
    {
      "constant": true,
      "inputs": [
        {
          "name": "index",
          "type": "uint256"
        }
      ],
      "name": "getChallan1",
      "outputs": [
        {
          "name": "",
          "type": "uint256"
        },
        {
          "name": "",
          "type": "string"
        },
        {
          "name": "",
          "type": "string"
        },
        {
          "name": "",
          "type": "uint256"
        },
        {
          "name": "",
          "type": "uint256"
        },
        {
          "name": "",
          "type": "string"
        },
        {
          "name": "",
          "type": "string"
        }
      ],
      "payable": false,
      "stateMutability": "view",
      "type": "function",
      "signature": "0xaf1039d2"
    },
    {
      "constant": true,
      "inputs": [
        {
          "name": "index",
          "type": "uint256"
        }
      ],
      "name": "getChallan2",
      "outputs": [
        {
          "name": "",
          "type": "string"
        },
        {
          "name": "",
          "type": "uint256"
        },
        {
          "name": "",
          "type": "string"
        },
        {
          "name": "",
          "type": "uint256"
        },
        {
          "name": "",
          "type": "string"
        },
        {
          "name": "",
          "type": "uint256"
        }
      ],
      "payable": false,
      "stateMutability": "view",
      "type": "function",
      "signature": "0x3906e8af"
    },
    {
      "constant": true,
      "inputs": [
        {
          "name": "index",
          "type": "uint256"
        }
      ],
      "name": "getChallan3",
      "outputs": [
        {
          "name": "",
          "type": "uint256"
        },
        {
          "name": "",
          "type": "uint256"
        },
        {
          "name": "",
          "type": "uint256"
        },
        {
          "name": "",
          "type": "uint256"
        },
        {
          "name": "",
          "type": "string"
        }
      ],
      "payable": false,
      "stateMutability": "view",
      "type": "function",
      "signature": "0x6d210934"
    },
    {
      "constant": false,
      "inputs": [
        {
          "name": "_cn",
          "type": "uint256"
        },
        {
          "name": "_is",
          "type": "uint256"
        }
      ],
      "name": "add_paid_information",
      "outputs": [],
      "payable": false,
      "stateMutability": "nonpayable",
      "type": "function",
      "signature": "0xd7bc2bb5"
    },
    {
      "constant": true,
      "inputs": [
        {
          "name": "a",
          "type": "string"
        },
        {
          "name": "b",
          "type": "string"
        }
      ],
      "name": "compareStrings",
      "outputs": [
        {
          "name": "",
          "type": "bool"
        }
      ],
      "payable": false,
      "stateMutability": "view",
      "type": "function",
      "signature": "0xbed34bba"
    }
  ],
  "bytecode": "0x60806040526000805534801561001457600080fd5b506118c5806100246000396000f3fe60806040526004361061008e576000357c0100000000000000000000000000000000000000000000000000000000900463ffffffff1680633906e8af14610093578063450fa376146102345780636d210934146103385780637399b2a814610408578063af1039d2146108a1578063bed34bba14610aae578063d7bc2bb514610c25578063ea30d94f14610c6a575b600080fd5b34801561009f57600080fd5b506100cc600480360360208110156100b657600080fd5b8101908080359060200190929190505050610c95565b6040518080602001878152602001806020018681526020018060200185815260200184810384528a818151815260200191508051906020019080838360005b8381101561012657808201518184015260208101905061010b565b50505050905090810190601f1680156101535780820380516001836020036101000a031916815260200191505b50848103835288818151815260200191508051906020019080838360005b8381101561018c578082015181840152602081019050610171565b50505050905090810190601f1680156101b95780820380516001836020036101000a031916815260200191505b50848103825286818151815260200191508051906020019080838360005b838110156101f25780820151818401526020810190506101d7565b50505050905090810190601f16801561021f5780820380516001836020036101000a031916815260200191505b50995050505050505050505060405180910390f35b34801561024057600080fd5b50610322600480360360a081101561025757600080fd5b81019080803590602001909291908035906020019092919080359060200190929190803590602001909291908035906020019064010000000081111561029c57600080fd5b8201836020820111156102ae57600080fd5b803590602001918460018302840111640100000000831117156102d057600080fd5b91908080601f016020809104026020016040519081016040528093929190818152602001838380828437600081840152601f19601f820116905080830192505050505050509192919290505050610f11565b6040518082815260200191505060405180910390f35b34801561034457600080fd5b506103716004803603602081101561035b57600080fd5b8101908080359060200190929190505050610fbc565b6040518086815260200185815260200184815260200183815260200180602001828103825283818151815260200191508051906020019080838360005b838110156103c95780820151818401526020810190506103ae565b50505050905090810190601f1680156103f65780820380516001836020036101000a031916815260200191505b50965050505050505060405180910390f35b34801561041457600080fd5b5061088b600480360361018081101561042c57600080fd5b81019080803590602001909291908035906020019064010000000081111561045357600080fd5b82018360208201111561046557600080fd5b8035906020019184600183028401116401000000008311171561048757600080fd5b91908080601f016020809104026020016040519081016040528093929190818152602001838380828437600081840152601f19601f820116905080830192505050505050509192919290803590602001906401000000008111156104ea57600080fd5b8201836020820111156104fc57600080fd5b8035906020019184600183028401116401000000008311171561051e57600080fd5b91908080601f016020809104026020016040519081016040528093929190818152602001838380828437600081840152601f19601f82011690508083019250505050505050919291929080359060200190929190803590602001909291908035906020019064010000000081111561059557600080fd5b8201836020820111156105a757600080fd5b803590602001918460018302840111640100000000831117156105c957600080fd5b91908080601f016020809104026020016040519081016040528093929190818152602001838380828437600081840152601f19601f8201169050808301925050505050505091929192908035906020019064010000000081111561062c57600080fd5b82018360208201111561063e57600080fd5b8035906020019184600183028401116401000000008311171561066057600080fd5b91908080601f016020809104026020016040519081016040528093929190818152602001838380828437600081840152601f19601f820116905080830192505050505050509192919290803590602001906401000000008111156106c357600080fd5b8201836020820111156106d557600080fd5b803590602001918460018302840111640100000000831117156106f757600080fd5b91908080601f016020809104026020016040519081016040528093929190818152602001838380828437600081840152601f19601f820116905080830192505050505050509192919290803590602001909291908035906020019064010000000081111561076457600080fd5b82018360208201111561077657600080fd5b8035906020019184600183028401116401000000008311171561079857600080fd5b91908080601f016020809104026020016040519081016040528093929190818152602001838380828437600081840152601f19601f820116905080830192505050505050509192919290803590602001906401000000008111156107fb57600080fd5b82018360208201111561080d57600080fd5b8035906020019184600183028401116401000000008311171561082f57600080fd5b91908080601f016020809104026020016040519081016040528093929190818152602001838380828437600081840152601f19601f820116905080830192505050505050509192919290803590602001909291905050506110e5565b6040518082815260200191505060405180910390f35b3480156108ad57600080fd5b506108da600480360360208110156108c457600080fd5b810190808035906020019092919050505061130b565b604051808881526020018060200180602001878152602001868152602001806020018060200185810385528b818151815260200191508051906020019080838360005b8381101561093857808201518184015260208101905061091d565b50505050905090810190601f1680156109655780820380516001836020036101000a031916815260200191505b5085810384528a818151815260200191508051906020019080838360005b8381101561099e578082015181840152602081019050610983565b50505050905090810190601f1680156109cb5780820380516001836020036101000a031916815260200191505b50858103835287818151815260200191508051906020019080838360005b83811015610a045780820151818401526020810190506109e9565b50505050905090810190601f168015610a315780820380516001836020036101000a031916815260200191505b50858103825286818151815260200191508051906020019080838360005b83811015610a6a578082015181840152602081019050610a4f565b50505050905090810190601f168015610a975780820380516001836020036101000a031916815260200191505b509b50505050505050505050505060405180910390f35b348015610aba57600080fd5b50610c0b60048036036040811015610ad157600080fd5b8101908080359060200190640100000000811115610aee57600080fd5b820183602082011115610b0057600080fd5b80359060200191846001830284011164010000000083111715610b2257600080fd5b91908080601f016020809104026020016040519081016040528093929190818152602001838380828437600081840152601f19601f82011690508083019250505050505050919291929080359060200190640100000000811115610b8557600080fd5b820183602082011115610b9757600080fd5b80359060200191846001830284011164010000000083111715610bb957600080fd5b91908080601f016020809104026020016040519081016040528093929190818152602001838380828437600081840152601f19601f82011690508083019250505050505050919291929050505061163c565b604051808215151515815260200191505060405180910390f35b348015610c3157600080fd5b50610c6860048036036040811015610c4857600080fd5b81019080803590602001909291908035906020019092919050505061172f565b005b348015610c7657600080fd5b50610c7f61176e565b6040518082815260200191505060405180910390f35b606060006060600060606000600160008881526020019081526020016000206007016001600089815260200190815260200160002060080154600160008a8152602001908152602001600020600901600160008b8152602001908152602001600020600a0154600160008c8152602001908152602001600020600b01600160008d8152602001908152602001600020600c0154858054600181600116156101000203166002900480601f016020809104026020016040519081016040528092919081815260200182805460018160011615610100020316600290048015610dbd5780601f10610d9257610100808354040283529160200191610dbd565b820191906000526020600020905b815481529060010190602001808311610da057829003601f168201915b50505050509550838054600181600116156101000203166002900480601f016020809104026020016040519081016040528092919081815260200182805460018160011615610100020316600290048015610e595780601f10610e2e57610100808354040283529160200191610e59565b820191906000526020600020905b815481529060010190602001808311610e3c57829003601f168201915b50505050509350818054600181600116156101000203166002900480601f016020809104026020016040519081016040528092919081815260200182805460018160011615610100020316600290048015610ef55780601f10610eca57610100808354040283529160200191610ef5565b820191906000526020600020905b815481529060010190602001808311610ed857829003601f168201915b5050505050915095509550955095509550955091939550919395565b6000856001600080548152602001908152602001600020600d0181905550846001600080548152602001908152602001600020600e0181905550836001600080548152602001908152602001600020600f0181905550826001600080548152602001908152602001600020600f01819055508160016000805481526020019081526020016000206011019080519060200190610fae929190611774565b506001905095945050505050565b600080600080606060016000878152602001908152602001600020600d015460016000888152602001908152602001600020600e015460016000898152602001908152602001600020600f0154600160008a815260200190815260200160002060100154600160008b8152602001908152602001600020601101808054600181600116156101000203166002900480601f0160208091040260200160405190810160405280929190818152602001828054600181600116156101000203166002900480156110cb5780601f106110a0576101008083540402835291602001916110cb565b820191906000526020600020905b8154815290600101906020018083116110ae57829003601f168201915b505050505090509450945094509450945091939590929450565b60008060009050610240604051908101604052808f81526020018e81526020018d81526020018c81526020018b81526020018a815260200189815260200188815260200187815260200186815260200182815260200185815260200184815260200160008152602001600081526020016000815260200160008152602001602060405190810160405280600081525081525060016000805481526020019081526020016000206000820151816000015560208201518160010190805190602001906111b19291906117f4565b5060408201518160020190805190602001906111ce9291906117f4565b50606082015181600301556080820151816004015560a08201518160050190805190602001906111ff9291906117f4565b5060c082015181600601908051906020019061121c9291906117f4565b5060e08201518160070190805190602001906112399291906117f4565b5061010082015181600801556101208201518160090190805190602001906112629291906117f4565b5061014082015181600a015561016082015181600b01908051906020019061128b9291906117f4565b5061018082015181600c01556101a082015181600d01556101c082015181600e01556101e082015181600f015561020082015181601001556102208201518160110190805190602001906112e09291906117f4565b5090505060008081548092919060010191905055506000549150509c9b505050505050505050505050565b60006060806000806060806001600089815260200190815260200160002060000154600160008a8152602001908152602001600020600101600160008b8152602001908152602001600020600201600160008c815260200190815260200160002060030154600160008d815260200190815260200160002060040154600160008e8152602001908152602001600020600501600160008f8152602001908152602001600020600601858054600181600116156101000203166002900480601f0160208091040260200160405190810160405280929190818152602001828054600181600116156101000203166002900480156114485780601f1061141d57610100808354040283529160200191611448565b820191906000526020600020905b81548152906001019060200180831161142b57829003601f168201915b50505050509550848054600181600116156101000203166002900480601f0160208091040260200160405190810160405280929190818152602001828054600181600116156101000203166002900480156114e45780601f106114b9576101008083540402835291602001916114e4565b820191906000526020600020905b8154815290600101906020018083116114c757829003601f168201915b50505050509450818054600181600116156101000203166002900480601f0160208091040260200160405190810160405280929190818152602001828054600181600116156101000203166002900480156115805780601f1061155557610100808354040283529160200191611580565b820191906000526020600020905b81548152906001019060200180831161156357829003601f168201915b50505050509150808054600181600116156101000203166002900480601f01602080910402602001604051908101604052809291908181526020018280546001816001161561010002031660029004801561161c5780601f106115f15761010080835404028352916020019161161c565b820191906000526020600020905b8154815290600101906020018083116115ff57829003601f168201915b505050505090509650965096509650965096509650919395979092949650565b6000816040516020018082805190602001908083835b6020831015156116775780518252602082019150602081019050602083039250611652565b6001836020036101000a03801982511681845116808217855250505050505090500191505060405160208183030381529060405280519060200120836040516020018082805190602001908083835b6020831015156116eb57805182526020820191506020810190506020830392506116c6565b6001836020036101000a0380198251168184511680821785525050505050509050019150506040516020818303038152906040528051906020012014905092915050565b600054821115151561174057600080fd5b60008211151561174f57600080fd5b8060016000848152602001908152602001600020600a01819055505050565b60005481565b828054600181600116156101000203166002900490600052602060002090601f016020900481019282601f106117b557805160ff19168380011785556117e3565b828001600101855582156117e3579182015b828111156117e25782518255916020019190600101906117c7565b5b5090506117f09190611874565b5090565b828054600181600116156101000203166002900490600052602060002090601f016020900481019282601f1061183557805160ff1916838001178555611863565b82800160010185558215611863579182015b82811115611862578251825591602001919060010190611847565b5b5090506118709190611874565b5090565b61189691905b8082111561189257600081600090555060010161187a565b5090565b9056fea165627a7a72305820af6bc3c704a237ff540e6dfa15d8c0ec84177e0afa23de7eef610ff782ce40db0029",
  "source": "pragma solidity ^0.5.0;\r\ncontract Challan {\r\n    uint public chalanCount = 0;\r\n    mapping(uint => Chalan) all_challans;\r\n    \r\n    constructor () public {\r\n    }\r\n\r\n    struct Chalan {\r\n      uint challan_number_in_day;\r\n      string vehicle_number_plate;\r\n      string date_time;\r\n      \r\n      uint violation_type;\r\n      uint fine_amount;\r\n      \r\n      string driver_name;\r\n      string driver_cnic;\r\n      string owner_cnic;\r\n      uint warden_id;\r\n      \r\n      string due_date;\r\n      uint paid_information;\r\n      \r\n      string confiscated_document;\r\n      uint available_at;\r\n  \r\n      uint latitude_number_part;\r\n      uint latitude_decimal_part;\r\n      uint longitude_number_part;\r\n      uint longitude_decimal_part;\r\n      string filename;\r\n    }\r\n\r\n    function add_Chalan(uint c_no,string memory _vnp,string memory _d,uint _vt,uint _fa,string memory _dn,string memory _dc,string memory _oc,uint _wi,string memory _dd,string memory _cd,uint _aa) public returns  (uint){\r\n        uint _pi=0;\r\n        all_challans[chalanCount] = Chalan(c_no,_vnp,_d,_vt,_fa,_dn,_dc,_oc,_wi,_dd,_pi,_cd,_aa,0,0,0,0,\"\");\r\n        chalanCount++;\r\n        return chalanCount;\r\n        //}else if(_d!=all_challans[chalanCount].date){\r\n            \r\n          //  all_challans[chalanCount] = Chalan(all_challans[chalanCount-1].challan_number_in_day+1,_vnp,_d, //_t, _vt,_fa,_dn,_dc,_oc,_wi,_dd,_pi,_cd,_aa,0,0,0,0,\"\");\r\n          //  chalanCount++;\r\n           // return chalanCount;\r\n        //}\r\n    }\r\n    \r\n    function add_Cordinates(uint _lan,uint _lad,uint _lon,uint _lod,string memory _f)public returns (uint){\r\n        all_challans[chalanCount].latitude_number_part=_lan;\r\n        all_challans[chalanCount].latitude_decimal_part=_lad;\r\n        all_challans[chalanCount].longitude_number_part=_lon;\r\n        all_challans[chalanCount].longitude_number_part=_lod;\r\n        all_challans[chalanCount].filename=_f;\r\n        return 1;\r\n    }\r\n\r\n    function getChallan1(uint index) public view returns(uint,string memory,string memory,uint,uint,string memory,string memory) {\r\n        return (all_challans[index].challan_number_in_day,all_challans[index].vehicle_number_plate,all_challans[index].date_time,all_challans[index].violation_type,all_challans[index].fine_amount,all_challans[index].driver_name,all_challans[index].driver_cnic);\r\n    }\r\n    function getChallan2(uint index) public view returns(string memory,uint,string memory,uint,string memory,uint) {\r\n        return (all_challans[index].owner_cnic,all_challans[index].warden_id,all_challans[index].due_date,all_challans[index].paid_information,all_challans[index].confiscated_document,all_challans[index].available_at);\r\n    }\r\n    function getChallan3(uint index) public view returns(uint,uint,uint,uint,string memory) {\r\n        return (all_challans[index].latitude_number_part,all_challans[index].latitude_decimal_part,all_challans[index].longitude_number_part,all_challans[index].longitude_decimal_part,all_challans[index].filename);\r\n    }\r\n\r\n    function add_paid_information(uint _cn,uint _is) public {\r\n        require(_cn<=chalanCount);\r\n        require(_cn>0);\r\n        all_challans[_cn].paid_information=_is;\r\n        \r\n        \r\n    }\r\n    function compareStrings (string memory a, string memory b) public view \r\n       returns (bool) {\r\n    return (keccak256(abi.encodePacked((a))) == keccak256(abi.encodePacked((b))) );\r\n\r\n     }\r\n    \r\n    enum violation_types { TL, OS, NH, NNP, BW, NSB }\r\n    // TL = Traffic Light\r\n    // OS = OverSpeeding\r\n    // NH = No Helmet \r\n    // NNP = No Number Plate\r\n    // BW = Black Windows\r\n    // NSB = No Seat Belt\r\n    \r\n    function strConcat(string memory _a, string memory _b) internal returns (string memory){\r\n        bytes memory _ba = bytes(_a);\r\n        bytes memory _bb = bytes(_b);\r\n        bytes memory _bcomma = bytes(\":\");\r\n        string memory abcd = new string(_ba.length + _bb.length+1);\r\n        bytes memory babcde = bytes(abcd);\r\n        uint k = 0;\r\n        for (uint i = 0; i < _ba.length; i++) babcde[k++] = _ba[i];\r\n        babcde[_ba.length]=_bcomma[0];\r\n        for (uint i = 0; i < _bb.length; i++) babcde[k++] = _bb[i];\r\n        \r\n        return string(babcde);\r\n    }\r\n    function uint2str(uint _i) internal pure returns (string memory _uintAsString) {\r\n        if (_i == 0) {\r\n            return \"0\";\r\n        }\r\n        uint j = _i;\r\n        uint len;\r\n        while (j != 0) {\r\n            len++;\r\n            j /= 10;\r\n        }\r\n        bytes memory bstr = new bytes(len);\r\n        uint k = len - 1;\r\n        while (_i != 0) {\r\n            bstr[k--] = byte(uint8(48 + _i % 10));\r\n            _i /= 10;\r\n        }\r\n        return string(bstr);\r\n    }\r\n    \r\n  \r\n}\r\n\r\n    \r\n",
  "sourcePath": "C:/Users/moeez/blockchain_code/src/contracts/Challan.sol",
  "compiler": {
    "name": "solc",
    "version": "0.5.0+commit.1d4f565a.Emscripten.clang"
  },
  "schemaVersion": "3.0.2",
  "updatedAt": "2019-12-10T05:56:31.225Z",
  "devdoc": {
    "methods": {}
  },
  "userdoc": {
    "methods": {}
  }
}