{
  "contractName": "Officer",
  "abi": [
    {
      "constant": true,
      "inputs": [],
      "name": "OfficerCount",
      "outputs": [
        {
          "name": "",
          "type": "uint256"
        }
      ],
      "payable": false,
      "stateMutability": "view",
      "type": "function",
      "signature": "0xdc761f3c"
    },
    {
      "inputs": [],
      "payable": false,
      "stateMutability": "nonpayable",
      "type": "constructor",
      "signature": "constructor"
    },
    {
      "constant": false,
      "inputs": [
        {
          "name": "_id",
          "type": "uint256"
        },
        {
          "name": "_username",
          "type": "string"
        },
        {
          "name": "_password",
          "type": "string"
        }
      ],
      "name": "Login",
      "outputs": [
        {
          "name": "",
          "type": "string"
        }
      ],
      "payable": false,
      "stateMutability": "nonpayable",
      "type": "function",
      "signature": "0x9c2fddb3"
    },
    {
      "constant": true,
      "inputs": [],
      "name": "getCount",
      "outputs": [
        {
          "name": "",
          "type": "uint256"
        }
      ],
      "payable": false,
      "stateMutability": "view",
      "type": "function",
      "signature": "0xa87d942c"
    },
    {
      "constant": true,
      "inputs": [
        {
          "name": "id",
          "type": "uint256"
        }
      ],
      "name": "getInformation",
      "outputs": [
        {
          "name": "",
          "type": "uint256"
        },
        {
          "name": "",
          "type": "string"
        },
        {
          "name": "",
          "type": "string"
        },
        {
          "name": "",
          "type": "string"
        },
        {
          "name": "",
          "type": "string"
        },
        {
          "name": "",
          "type": "string"
        },
        {
          "name": "",
          "type": "string"
        }
      ],
      "payable": false,
      "stateMutability": "view",
      "type": "function",
      "signature": "0xeaa42568"
    },
    {
      "constant": false,
      "inputs": [
        {
          "name": "_id",
          "type": "uint256"
        }
      ],
      "name": "view_challan_history_by_officer",
      "outputs": [
        {
          "name": "",
          "type": "string"
        }
      ],
      "payable": false,
      "stateMutability": "nonpayable",
      "type": "function",
      "signature": "0xe3dd4c0c"
    },
    {
      "constant": false,
      "inputs": [
        {
          "name": "_id",
          "type": "uint256"
        },
        {
          "name": "_challanNo",
          "type": "uint256"
        }
      ],
      "name": "add_challan_to_warden",
      "outputs": [],
      "payable": false,
      "stateMutability": "nonpayable",
      "type": "function",
      "signature": "0xeabfddc2"
    },
    {
      "constant": false,
      "inputs": [
        {
          "name": "_name",
          "type": "string"
        },
        {
          "name": "_CNIC",
          "type": "string"
        },
        {
          "name": "_designation",
          "type": "string"
        },
        {
          "name": "_username",
          "type": "string"
        },
        {
          "name": "_password",
          "type": "string"
        }
      ],
      "name": "createOfficer",
      "outputs": [
        {
          "name": "",
          "type": "uint256"
        }
      ],
      "payable": false,
      "stateMutability": "nonpayable",
      "type": "function",
      "signature": "0x663666f3"
    },
    {
      "constant": true,
      "inputs": [
        {
          "name": "a",
          "type": "string"
        },
        {
          "name": "b",
          "type": "string"
        }
      ],
      "name": "compareStrings",
      "outputs": [
        {
          "name": "",
          "type": "bool"
        }
      ],
      "payable": false,
      "stateMutability": "view",
      "type": "function",
      "signature": "0xbed34bba"
    }
  ],
  "bytecode": "0x60806040526000805534801561001457600080fd5b50611dfb806100246000396000f3fe60806040526004361061008e576000357c0100000000000000000000000000000000000000000000000000000000900463ffffffff168063663666f3146100935780639c2fddb3146100d0578063a87d942c1461010d578063bed34bba14610138578063dc761f3c14610175578063e3dd4c0c146101a0578063eaa42568146101dd578063eabfddc214610220575b600080fd5b34801561009f57600080fd5b506100ba60048036036100b591908101906119d2565b610249565b6040516100c79190611c36565b60405180910390f35b3480156100dc57600080fd5b506100f760048036036100f29190810190611aea565b6103b3565b6040516101049190611c14565b60405180910390f35b34801561011957600080fd5b5061012261083d565b60405161012f9190611c36565b60405180910390f35b34801561014457600080fd5b5061015f600480360361015a9190810190611966565b610846565b60405161016c9190611bf9565b60405180910390f35b34801561018157600080fd5b5061018a610939565b6040516101979190611c36565b60405180910390f35b3480156101ac57600080fd5b506101c760048036036101c29190810190611ac1565b61093f565b6040516101d49190611c14565b60405180910390f35b3480156101e957600080fd5b5061020460048036036101ff9190810190611ac1565b610a0e565b6040516102179796959493929190611c51565b60405180910390f35b34801561022c57600080fd5b5061024760048036036102429190810190611b69565b610e75565b005b600080865111151561025a57600080fd5b600c855111151561026a57600080fd5b61010060405190810160405280600054815260200187815260200186815260200160206040519081016040528060008152508152602001858152602001838152602001848152602001600081525060016000805481526020019081526020016000206000820151816000015560208201518160010190805190602001906102f2929190611857565b50604082015181600201908051906020019061030f929190611857565b50606082015181600301908051906020019061032c929190611857565b506080820151816004019080519060200190610349929190611857565b5060a0820151816005019080519060200190610366929190611857565b5060c0820151816006019080519060200190610383929190611857565b5060e082015181600801559050506000808154809291906001019190505550600160005403905095945050505050565b606061046d600160008681526020019081526020016000206006018054600181600116156101000203166002900480601f0160208091040260200160405190810160405280929190818152602001828054600181600116156101000203166002900480156104625780601f1061043757610100808354040283529160200191610462565b820191906000526020600020905b81548152906001019060200180831161044557829003601f168201915b505050505084610846565b801561052d575061052c600160008681526020019081526020016000206005018054600181600116156101000203166002900480601f0160208091040260200160405190810160405280929190818152602001828054600181600116156101000203166002900480156105215780601f106104f657610100808354040283529160200191610521565b820191906000526020600020905b81548152906001019060200180831161050457829003601f168201915b505050505083610846565b5b156107fd576107f6600160008681526020019081526020016000206001018054600181600116156101000203166002900480601f0160208091040260200160405190810160405280929190818152602001828054600181600116156101000203166002900480156105df5780601f106105b4576101008083540402835291602001916105df565b820191906000526020600020905b8154815290600101906020018083116105c257829003601f168201915b5050505050600160008781526020019081526020016000206002018054600181600116156101000203166002900480601f01602080910402602001604051908101604052809291908181526020018280546001816001161561010002031660029004801561068e5780601f106106635761010080835404028352916020019161068e565b820191906000526020600020905b81548152906001019060200180831161067157829003601f168201915b5050505050600160008881526020019081526020016000206003018054600181600116156101000203166002900480601f01602080910402602001604051908101604052809291908181526020018280546001816001161561010002031660029004801561073d5780601f106107125761010080835404028352916020019161073d565b820191906000526020600020905b81548152906001019060200180831161072057829003601f168201915b5050505050600160008981526020019081526020016000206004018054600181600116156101000203166002900480601f0160208091040260200160405190810160405280929190818152602001828054600181600116156101000203166002900480156107ec5780601f106107c1576101008083540402835291602001916107ec565b820191906000526020600020905b8154815290600101906020018083116107cf57829003601f168201915b5050505050610ee1565b9050610836565b6040805190810160405280600181526020017f310000000000000000000000000000000000000000000000000000000000000081525090505b9392505050565b60008054905090565b6000816040516020018082805190602001908083835b602083101515610881578051825260208201915060208101905060208303925061085c565b6001836020036101000a03801982511681845116808217855250505050505090500191505060405160208183030381529060405280519060200120836040516020018082805190602001908083835b6020831015156108f557805182526020820191506020810190506020830392506108d0565b6001836020036101000a0380198251168184511680821785525050505050509050019150506040516020818303038152906040528051906020012014905092915050565b60005481565b606080602060405190810160405280600081525090506000600190505b600160008581526020019081526020016000206008015481111515610a04576109b4826109af60016000888152602001908152602001600020600701600085815260200190815260200160002054611454565b6115ad565b91506109f5826040805190810160405280600181526020017f3a000000000000000000000000000000000000000000000000000000000000008152506115ad565b9150808060010191505061095c565b5080915050919050565b60006060806060806060806001600089815260200190815260200160002060000154600160008a8152602001908152602001600020600101600160008b8152602001908152602001600020600201600160008c8152602001908152602001600020600301600160008d8152602001908152602001600020600401600160008e8152602001908152602001600020600501600160008f8152602001908152602001600020600601858054600181600116156101000203166002900480601f016020809104026020016040519081016040528092919081815260200182805460018160011615610100020316600290048015610b495780601f10610b1e57610100808354040283529160200191610b49565b820191906000526020600020905b815481529060010190602001808311610b2c57829003601f168201915b50505050509550848054600181600116156101000203166002900480601f016020809104026020016040519081016040528092919081815260200182805460018160011615610100020316600290048015610be55780601f10610bba57610100808354040283529160200191610be5565b820191906000526020600020905b815481529060010190602001808311610bc857829003601f168201915b50505050509450838054600181600116156101000203166002900480601f016020809104026020016040519081016040528092919081815260200182805460018160011615610100020316600290048015610c815780601f10610c5657610100808354040283529160200191610c81565b820191906000526020600020905b815481529060010190602001808311610c6457829003601f168201915b50505050509350828054600181600116156101000203166002900480601f016020809104026020016040519081016040528092919081815260200182805460018160011615610100020316600290048015610d1d5780601f10610cf257610100808354040283529160200191610d1d565b820191906000526020600020905b815481529060010190602001808311610d0057829003601f168201915b50505050509250818054600181600116156101000203166002900480601f016020809104026020016040519081016040528092919081815260200182805460018160011615610100020316600290048015610db95780601f10610d8e57610100808354040283529160200191610db9565b820191906000526020600020905b815481529060010190602001808311610d9c57829003601f168201915b50505050509150808054600181600116156101000203166002900480601f016020809104026020016040519081016040528092919081815260200182805460018160011615610100020316600290048015610e555780601f10610e2a57610100808354040283529160200191610e55565b820191906000526020600020905b815481529060010190602001808311610e3857829003601f168201915b505050505090509650965096509650965096509650919395979092949650565b80600160008481526020019081526020016000206007016000600160008681526020019081526020016000206008015481526020019081526020016000208190555060016000838152602001908152602001600020600801600081548092919060010191905055505050565b60608085905060608590506060859050606085905060606040805190810160405280600181526020017f2c000000000000000000000000000000000000000000000000000000000000008152509050606060038351855187518951010101016040519080825280601f01601f191660200182016040528015610f725781602001600182028038833980820191505090505b5090506060819050600080905060008090505b8851811015611038578881815181101515610f9c57fe5b9060200101517f010000000000000000000000000000000000000000000000000000000000000090047f0100000000000000000000000000000000000000000000000000000000000000028383806001019450815181101515610ffb57fe5b9060200101907effffffffffffffffffffffffffffffffffffffffffffffffffffffffffffff1916908160001a9053508080600101915050610f85565b5083600081518110151561104857fe5b9060200101517f010000000000000000000000000000000000000000000000000000000000000090047f01000000000000000000000000000000000000000000000000000000000000000282828060010193508151811015156110a757fe5b9060200101907effffffffffffffffffffffffffffffffffffffffffffffffffffffffffffff1916908160001a90535060008090505b87518110156111905787818151811015156110f457fe5b9060200101517f010000000000000000000000000000000000000000000000000000000000000090047f010000000000000000000000000000000000000000000000000000000000000002838380600101945081518110151561115357fe5b9060200101907effffffffffffffffffffffffffffffffffffffffffffffffffffffffffffff1916908160001a90535080806001019150506110dd565b508360008151811015156111a057fe5b9060200101517f010000000000000000000000000000000000000000000000000000000000000090047f01000000000000000000000000000000000000000000000000000000000000000282828060010193508151811015156111ff57fe5b9060200101907effffffffffffffffffffffffffffffffffffffffffffffffffffffffffffff1916908160001a90535060008090505b86518110156112e857868181518110151561124c57fe5b9060200101517f010000000000000000000000000000000000000000000000000000000000000090047f01000000000000000000000000000000000000000000000000000000000000000283838060010194508151811015156112ab57fe5b9060200101907effffffffffffffffffffffffffffffffffffffffffffffffffffffffffffff1916908160001a9053508080600101915050611235565b508360008151811015156112f857fe5b9060200101517f010000000000000000000000000000000000000000000000000000000000000090047f010000000000000000000000000000000000000000000000000000000000000002828280600101935081518110151561135757fe5b9060200101907effffffffffffffffffffffffffffffffffffffffffffffffffffffffffffff1916908160001a90535060008090505b85518110156114405785818151811015156113a457fe5b9060200101517f010000000000000000000000000000000000000000000000000000000000000090047f010000000000000000000000000000000000000000000000000000000000000002838380600101945081518110151561140357fe5b9060200101907effffffffffffffffffffffffffffffffffffffffffffffffffffffffffffff1916908160001a905350808060010191505061138d565b508198505050505050505050949350505050565b6060600082141561149c576040805190810160405280600181526020017f300000000000000000000000000000000000000000000000000000000000000081525090506115a8565b600082905060005b6000821415156114ca578080600101915050600a828115156114c257fe5b0491506114a4565b6060816040519080825280601f01601f1916602001820160405280156114ff5781602001600182028038833980820191505090505b50905060006001830390505b6000861415156115a057600a8681151561152157fe5b066030017f01000000000000000000000000000000000000000000000000000000000000000282828060019003935081518110151561155c57fe5b9060200101907effffffffffffffffffffffffffffffffffffffffffffffffffffffffffffff1916908160001a905350600a8681151561159857fe5b04955061150b565b819450505050505b919050565b606080839050606083905060606040805190810160405280600181526020017f2c000000000000000000000000000000000000000000000000000000000000008152509050606060018351855101016040519080825280601f01601f19166020018201604052801561162e5781602001600182028038833980820191505090505b5090506060819050600080905060008090505b86518110156116f457868181518110151561165857fe5b9060200101517f010000000000000000000000000000000000000000000000000000000000000090047f01000000000000000000000000000000000000000000000000000000000000000283838060010194508151811015156116b757fe5b9060200101907effffffffffffffffffffffffffffffffffffffffffffffffffffffffffffff1916908160001a9053508080600101915050611641565b5083600081518110151561170457fe5b9060200101517f010000000000000000000000000000000000000000000000000000000000000090047f01000000000000000000000000000000000000000000000000000000000000000282875181518110151561175e57fe5b9060200101907effffffffffffffffffffffffffffffffffffffffffffffffffffffffffffff1916908160001a90535060008090505b85518110156118475785818151811015156117ab57fe5b9060200101517f010000000000000000000000000000000000000000000000000000000000000090047f010000000000000000000000000000000000000000000000000000000000000002838380600101945081518110151561180a57fe5b9060200101907effffffffffffffffffffffffffffffffffffffffffffffffffffffffffffff1916908160001a9053508080600101915050611794565b5081965050505050505092915050565b828054600181600116156101000203166002900490600052602060002090601f016020900481019282601f1061189857805160ff19168380011785556118c6565b828001600101855582156118c6579182015b828111156118c55782518255916020019190600101906118aa565b5b5090506118d391906118d7565b5090565b6118f991905b808211156118f55760008160009055506001016118dd565b5090565b90565b600082601f830112151561190f57600080fd5b813561192261191d82611d17565b611cea565b9150808252602083016020830185838301111561193e57600080fd5b611949838284611d6e565b50505092915050565b600061195e8235611d64565b905092915050565b6000806040838503121561197957600080fd5b600083013567ffffffffffffffff81111561199357600080fd5b61199f858286016118fc565b925050602083013567ffffffffffffffff8111156119bc57600080fd5b6119c8858286016118fc565b9150509250929050565b600080600080600060a086880312156119ea57600080fd5b600086013567ffffffffffffffff811115611a0457600080fd5b611a10888289016118fc565b955050602086013567ffffffffffffffff811115611a2d57600080fd5b611a39888289016118fc565b945050604086013567ffffffffffffffff811115611a5657600080fd5b611a62888289016118fc565b935050606086013567ffffffffffffffff811115611a7f57600080fd5b611a8b888289016118fc565b925050608086013567ffffffffffffffff811115611aa857600080fd5b611ab4888289016118fc565b9150509295509295909350565b600060208284031215611ad357600080fd5b6000611ae184828501611952565b91505092915050565b600080600060608486031215611aff57600080fd5b6000611b0d86828701611952565b935050602084013567ffffffffffffffff811115611b2a57600080fd5b611b36868287016118fc565b925050604084013567ffffffffffffffff811115611b5357600080fd5b611b5f868287016118fc565b9150509250925092565b60008060408385031215611b7c57600080fd5b6000611b8a85828601611952565b9250506020611b9b85828601611952565b9150509250929050565b611bae81611d4e565b82525050565b6000611bbf82611d43565b808452611bd3816020860160208601611d7d565b611bdc81611db0565b602085010191505092915050565b611bf381611d5a565b82525050565b6000602082019050611c0e6000830184611ba5565b92915050565b60006020820190508181036000830152611c2e8184611bb4565b905092915050565b6000602082019050611c4b6000830184611bea565b92915050565b600060e082019050611c66600083018a611bea565b8181036020830152611c788189611bb4565b90508181036040830152611c8c8188611bb4565b90508181036060830152611ca08187611bb4565b90508181036080830152611cb48186611bb4565b905081810360a0830152611cc88185611bb4565b905081810360c0830152611cdc8184611bb4565b905098975050505050505050565b6000604051905081810181811067ffffffffffffffff82111715611d0d57600080fd5b8060405250919050565b600067ffffffffffffffff821115611d2e57600080fd5b601f19601f8301169050602081019050919050565b600081519050919050565b60008115159050919050565b6000819050919050565b6000819050919050565b82818337600083830152505050565b60005b83811015611d9b578082015181840152602081019050611d80565b83811115611daa576000848401525b50505050565b6000601f19601f830116905091905056fea265627a7a723058206780be64d529263df55177a5bcd2a4c4c7013dce61b21ac025c3dc15a145415a6c6578706572696d656e74616cf50037",
  "source": "pragma solidity ^0.5.0;\r\npragma experimental ABIEncoderV2;\r\n\r\ncontract Officer {\r\n    \r\n    uint public OfficerCount = 0;\r\n\r\n    mapping(uint => Officers) all_officers;     \r\n\r\n    constructor() public {\r\n        \r\n    }\r\n\r\n    struct Officers {\r\n        uint id;\r\n        string name;\r\n        string CNIC;\r\n        string Address;\r\n        string designation;\r\n        string password;\r\n        string username;\r\n\t    mapping(uint=>uint) challans;\r\n\t    uint challan_count;\r\n\t    \r\n    }\r\n    function Login (uint _id, string memory _username, string memory _password) public returns(string memory) {\r\n    if(compareStrings(all_officers[_id].username , _username) && compareStrings(all_officers[_id].password ,_password)){\r\n\t\treturn strConcat(all_officers[_id].name,all_officers[_id].CNIC,all_officers[_id].Address,all_officers[_id].designation);\r\n\t}else{\r\n\t\treturn \"1\";\r\n\t    }\r\n    }\r\n    function getCount()public view returns(uint){\r\n        return OfficerCount;\r\n    }\r\n    function getInformation(uint id)public view returns(uint ,string memory,string memory,string memory,string memory,string memory,string memory){\r\n        return (all_officers[id].id,all_officers[id].name,all_officers[id].CNIC,all_officers[id].Address,all_officers[id].designation,all_officers[id].password,all_officers[id].username);\r\n    }\r\n    function view_challan_history_by_officer(uint _id) public returns(string memory) {\r\n        string memory ret_val=\"\";\r\n        for (uint i=1;i<=all_officers[_id].challan_count;i++){\r\n            ret_val=strConcat(ret_val,uint2str(all_officers[_id].challans[i]));\r\n            ret_val=strConcat(ret_val,\":\");\r\n        }\r\n        return ret_val;\r\n    }\r\n    function add_challan_to_warden(uint _id,uint _challanNo) public {\r\n        all_officers[_id].challans[all_officers[_id].challan_count]= _challanNo;\r\n        all_officers[_id].challan_count++;\r\n\r\n    }\r\n    function createOfficer(string memory _name, string memory _CNIC, string memory _designation,string memory _username, string memory _password) public returns(uint){\r\n        require(bytes(_name).length > 0);\r\n        require(bytes(_CNIC).length > 12);\r\n        all_officers[OfficerCount] = Officers(OfficerCount, _name, _CNIC, \"\",_designation,_password,_username,0);\r\n        OfficerCount ++;\r\n        return OfficerCount-1;\r\n    } \r\n    \r\n    function compareStrings (string memory a, string memory b) public view\r\n       returns (bool) {\r\n    return (keccak256(abi.encodePacked((a))) == keccak256(abi.encodePacked((b))) );\r\n\r\n       }\r\n\r\n    function strConcat(string memory _a, string memory _b, string memory _c, string memory _d) internal returns (string memory){\r\n        bytes memory _ba = bytes(_a);\r\n        bytes memory _bb = bytes(_b);\r\n        bytes memory _bc = bytes(_c);\r\n        bytes memory _bd = bytes(_d);\r\n        bytes memory _bcomma = bytes(\",\");\r\n        string memory abcd = new string(_ba.length + _bb.length + _bc.length + _bd.length+3 );\r\n        bytes memory babcde = bytes(abcd);\r\n        uint k = 0;\r\n        for (uint i = 0; i < _ba.length; i++) babcde[k++] = _ba[i];\r\n        babcde[k++]=_bcomma[0];\r\n        for (uint i = 0; i < _bb.length; i++) babcde[k++] = _bb[i];\r\n        babcde[k++]=_bcomma[0];\r\n        for (uint i = 0; i < _bc.length; i++) babcde[k++] = _bc[i];\r\n        babcde[k++]=_bcomma[0];\r\n        for (uint i = 0; i < _bd.length; i++) babcde[k++] = _bd[i];\r\n        return string(babcde);\r\n    }\r\n    function strConcat(string memory _a, string memory _b) internal returns (string memory){\r\n        bytes memory _ba = bytes(_a);\r\n        bytes memory _bb = bytes(_b);\r\n        bytes memory _bcomma = bytes(\",\");\r\n        string memory abcd = new string(_ba.length + _bb.length+1);\r\n        bytes memory babcde = bytes(abcd);\r\n        uint k = 0;\r\n        for (uint i = 0; i < _ba.length; i++) babcde[k++] = _ba[i];\r\n        babcde[_ba.length]=_bcomma[0];\r\n        for (uint i = 0; i < _bb.length; i++) babcde[k++] = _bb[i];\r\n        \r\n        return string(babcde);\r\n    }\r\n    function uint2str(uint _i) internal pure returns (string memory _uintAsString) {\r\n        if (_i == 0) {\r\n            return \"0\";\r\n        }\r\n        uint j = _i;\r\n        uint len;\r\n        while (j != 0) {\r\n            len++;\r\n            j /= 10;\r\n        }\r\n        bytes memory bstr = new bytes(len);\r\n        uint k = len - 1;\r\n        while (_i != 0) {\r\n            bstr[k--] = byte(uint8(48 + _i % 10));\r\n            _i /= 10;\r\n        }\r\n        return string(bstr);\r\n    }\r\n}\r\n",
  "sourcePath": "C:/Users/moeez/blockchain_code/src/contracts/Officer.sol",
  "compiler": {
    "name": "solc",
    "version": "0.5.0+commit.1d4f565a.Emscripten.clang"
  },
  "schemaVersion": "3.0.2",
  "updatedAt": "2019-12-10T05:56:31.611Z",
  "devdoc": {
    "methods": {}
  },
  "userdoc": {
    "methods": {}
  }
}