{
  "contractName": "PaidInformation",
  "abi": [
    {
      "constant": true,
      "inputs": [],
      "name": "count",
      "outputs": [
        {
          "name": "",
          "type": "uint256"
        }
      ],
      "payable": false,
      "stateMutability": "view",
      "type": "function"
    },
    {
      "constant": true,
      "inputs": [],
      "name": "getCount",
      "outputs": [
        {
          "name": "",
          "type": "uint256"
        }
      ],
      "payable": false,
      "stateMutability": "view",
      "type": "function"
    },
    {
      "constant": true,
      "inputs": [
        {
          "name": "index",
          "type": "uint256"
        }
      ],
      "name": "getInformation",
      "outputs": [
        {
          "name": "",
          "type": "string"
        },
        {
          "name": "",
          "type": "string"
        },
        {
          "name": "",
          "type": "string"
        }
      ],
      "payable": false,
      "stateMutability": "view",
      "type": "function"
    },
    {
      "constant": false,
      "inputs": [
        {
          "name": "index",
          "type": "uint256"
        },
        {
          "name": "a1",
          "type": "string"
        },
        {
          "name": "a2",
          "type": "string"
        },
        {
          "name": "a3",
          "type": "string"
        }
      ],
      "name": "editInformation",
      "outputs": [
        {
          "name": "",
          "type": "uint256"
        }
      ],
      "payable": false,
      "stateMutability": "nonpayable",
      "type": "function"
    },
    {
      "constant": false,
      "inputs": [
        {
          "name": "a1",
          "type": "string"
        },
        {
          "name": "a2",
          "type": "string"
        },
        {
          "name": "a3",
          "type": "string"
        }
      ],
      "name": "addInformation",
      "outputs": [
        {
          "name": "",
          "type": "uint256"
        }
      ],
      "payable": false,
      "stateMutability": "nonpayable",
      "type": "function"
    }
  ],
  "bytecode": "0x60806040526000805534801561001457600080fd5b50610b45806100246000396000f3fe60806040526004361061006d576000357c0100000000000000000000000000000000000000000000000000000000900463ffffffff16806306661abd14610072578063150c85101461009d578063373e1180146102b1578063a87d942c146104bb578063eaa42568146104e6575b600080fd5b34801561007e57600080fd5b50610087610672565b6040518082815260200191505060405180910390f35b3480156100a957600080fd5b5061029b600480360360808110156100c057600080fd5b8101908080359060200190929190803590602001906401000000008111156100e757600080fd5b8201836020820111156100f957600080fd5b8035906020019184600183028401116401000000008311171561011b57600080fd5b91908080601f016020809104026020016040519081016040528093929190818152602001838380828437600081840152601f19601f8201169050808301925050505050505091929192908035906020019064010000000081111561017e57600080fd5b82018360208201111561019057600080fd5b803590602001918460018302840111640100000000831117156101b257600080fd5b91908080601f016020809104026020016040519081016040528093929190818152602001838380828437600081840152601f19601f8201169050808301925050505050505091929192908035906020019064010000000081111561021557600080fd5b82018360208201111561022757600080fd5b8035906020019184600183028401116401000000008311171561024957600080fd5b91908080601f016020809104026020016040519081016040528093929190818152602001838380828437600081840152601f19601f820116905080830192505050505050509192919290505050610678565b6040518082815260200191505060405180910390f35b3480156102bd57600080fd5b506104a5600480360360608110156102d457600080fd5b81019080803590602001906401000000008111156102f157600080fd5b82018360208201111561030357600080fd5b8035906020019184600183028401116401000000008311171561032557600080fd5b91908080601f016020809104026020016040519081016040528093929190818152602001838380828437600081840152601f19601f8201169050808301925050505050505091929192908035906020019064010000000081111561038857600080fd5b82018360208201111561039a57600080fd5b803590602001918460018302840111640100000000831117156103bc57600080fd5b91908080601f016020809104026020016040519081016040528093929190818152602001838380828437600081840152601f19601f8201169050808301925050505050505091929192908035906020019064010000000081111561041f57600080fd5b82018360208201111561043157600080fd5b8035906020019184600183028401116401000000008311171561045357600080fd5b91908080601f016020809104026020016040519081016040528093929190818152602001838380828437600081840152601f19601f820116905080830192505050505050509192919290505050610707565b6040518082815260200191505060405180910390f35b3480156104c757600080fd5b506104d06107b3565b6040518082815260200191505060405180910390f35b3480156104f257600080fd5b5061051f6004803603602081101561050957600080fd5b81019080803590602001909291905050506107bc565b60405180806020018060200180602001848103845287818151815260200191508051906020019080838360005b8381101561056757808201518184015260208101905061054c565b50505050905090810190601f1680156105945780820380516001836020036101000a031916815260200191505b50848103835286818151815260200191508051906020019080838360005b838110156105cd5780820151818401526020810190506105b2565b50505050905090810190601f1680156105fa5780820380516001836020036101000a031916815260200191505b50848103825285818151815260200191508051906020019080838360005b83811015610633578082015181840152602081019050610618565b50505050905090810190601f1680156106605780820380516001836020036101000a031916815260200191505b50965050505050505060405180910390f35b60005481565b6000836001600087815260200190815260200160002060000190805190602001906106a49291906109f4565b50826001600087815260200190815260200160002060010190805190602001906106cf9291906109f4565b50816001600087815260200190815260200160002060020190805190602001906106fa9291906109f4565b5060019050949350505050565b60006060604051908101604052808581526020018481526020018381525060016000805481526020019081526020016000206000820151816000019080519060200190610755929190610a74565b506020820151816001019080519060200190610772929190610a74565b50604082015181600201908051906020019061078f929190610a74565b50905050600080815480929190600101919050555060016000540390509392505050565b60008054905090565b6060806060600054841015156107d157600080fd5b600160008581526020019081526020016000206000016001600086815260200190815260200160002060010160016000878152602001908152602001600020600201828054600181600116156101000203166002900480601f0160208091040260200160405190810160405280929190818152602001828054600181600116156101000203166002900480156108a85780601f1061087d576101008083540402835291602001916108a8565b820191906000526020600020905b81548152906001019060200180831161088b57829003601f168201915b50505050509250818054600181600116156101000203166002900480601f0160208091040260200160405190810160405280929190818152602001828054600181600116156101000203166002900480156109445780601f1061091957610100808354040283529160200191610944565b820191906000526020600020905b81548152906001019060200180831161092757829003601f168201915b50505050509150808054600181600116156101000203166002900480601f0160208091040260200160405190810160405280929190818152602001828054600181600116156101000203166002900480156109e05780601f106109b5576101008083540402835291602001916109e0565b820191906000526020600020905b8154815290600101906020018083116109c357829003601f168201915b505050505090509250925092509193909250565b828054600181600116156101000203166002900490600052602060002090601f016020900481019282601f10610a3557805160ff1916838001178555610a63565b82800160010185558215610a63579182015b82811115610a62578251825591602001919060010190610a47565b5b509050610a709190610af4565b5090565b828054600181600116156101000203166002900490600052602060002090601f016020900481019282601f10610ab557805160ff1916838001178555610ae3565b82800160010185558215610ae3579182015b82811115610ae2578251825591602001919060010190610ac7565b5b509050610af09190610af4565b5090565b610b1691905b80821115610b12576000816000905550600101610afa565b5090565b9056fea165627a7a72305820b7120b0f77651067008bd50176912cd219a589ac88582bc441e3f9885bb48f1a0029",
  "source": "pragma solidity ^0.5.0;\ncontract PaidInformation {\n    uint public count = 0;\n    mapping(uint => information) info_table;\n    \n    struct information{\n        string date_submitted;\n        string challan_no;\n        string bank_name;\n    }\n    function getCount()public view returns(uint){\n        return count;\n    }\n    function getInformation(uint index) public view returns(string memory,string memory,string memory){\n        require(index<count);\n        return (info_table[index].date_submitted,info_table[index].challan_no,info_table[index].bank_name);\n    }\n    function editInformation(uint index,string memory a1,string memory a2,string memory a3) public returns(uint) {\n        info_table[index].date_submitted=a1;\n        info_table[index].challan_no=a2;\n        info_table[index].bank_name=a3;\n        return (1);\n    }\n\n    function addInformation(string memory a1,string memory a2,string memory a3) public returns  (uint){\n        info_table[count] = information(a1,a2,a3);\n        count++;\n        return count-1;\n        \n    }\n    \n}\n\n    \n",
  "sourcePath": "C:/Users/moeez/blockchain_code/src/contracts/PaidInformation.sol",
  "compiler": {
    "name": "solc",
    "version": "0.5.0+commit.1d4f565a.Emscripten.clang"
  },
  "schemaVersion": "3.0.2",
  "updatedAt": "2019-11-20T01:23:47.390Z",
  "devdoc": {
    "methods": {}
  },
  "userdoc": {
    "methods": {}
  }
}