{
  "contractName": "User",
  "abi": [
    {
      "constant": true,
      "inputs": [],
      "name": "count",
      "outputs": [
        {
          "name": "",
          "type": "uint256"
        }
      ],
      "payable": false,
      "stateMutability": "view",
      "type": "function",
      "signature": "0x06661abd"
    },
    {
      "constant": false,
      "inputs": [
        {
          "name": "_id",
          "type": "uint256"
        },
        {
          "name": "_password",
          "type": "string"
        }
      ],
      "name": "Login",
      "outputs": [
        {
          "name": "",
          "type": "string"
        }
      ],
      "payable": false,
      "stateMutability": "nonpayable",
      "type": "function",
      "signature": "0x7e139241"
    },
    {
      "constant": false,
      "inputs": [
        {
          "name": "_id",
          "type": "uint256"
        },
        {
          "name": "_challanNo",
          "type": "uint256"
        }
      ],
      "name": "add_challan_to_user",
      "outputs": [],
      "payable": false,
      "stateMutability": "nonpayable",
      "type": "function",
      "signature": "0x248da5be"
    },
    {
      "constant": false,
      "inputs": [
        {
          "name": "_id",
          "type": "uint256"
        },
        {
          "name": "_vehicleNo",
          "type": "uint256"
        }
      ],
      "name": "add_vehicle_to_user",
      "outputs": [],
      "payable": false,
      "stateMutability": "nonpayable",
      "type": "function",
      "signature": "0x86fa14b6"
    },
    {
      "constant": false,
      "inputs": [
        {
          "name": "a1",
          "type": "string"
        },
        {
          "name": "a2",
          "type": "string"
        },
        {
          "name": "a3",
          "type": "string"
        }
      ],
      "name": "createUser",
      "outputs": [
        {
          "name": "",
          "type": "uint256"
        }
      ],
      "payable": false,
      "stateMutability": "nonpayable",
      "type": "function",
      "signature": "0x59ae069b"
    },
    {
      "constant": false,
      "inputs": [
        {
          "name": "_id",
          "type": "uint256"
        }
      ],
      "name": "getUserChallans",
      "outputs": [
        {
          "name": "",
          "type": "string"
        }
      ],
      "payable": false,
      "stateMutability": "nonpayable",
      "type": "function",
      "signature": "0x2b70990c"
    },
    {
      "constant": true,
      "inputs": [],
      "name": "getCount",
      "outputs": [
        {
          "name": "",
          "type": "uint256"
        }
      ],
      "payable": false,
      "stateMutability": "view",
      "type": "function",
      "signature": "0xa87d942c"
    },
    {
      "constant": true,
      "inputs": [
        {
          "name": "_id",
          "type": "uint256"
        }
      ],
      "name": "getUserInformation",
      "outputs": [
        {
          "name": "",
          "type": "string"
        },
        {
          "name": "",
          "type": "string"
        }
      ],
      "payable": false,
      "stateMutability": "view",
      "type": "function",
      "signature": "0x4c7def7b"
    },
    {
      "constant": false,
      "inputs": [
        {
          "name": "_id",
          "type": "uint256"
        }
      ],
      "name": "getUserVehicle",
      "outputs": [
        {
          "name": "",
          "type": "string"
        }
      ],
      "payable": false,
      "stateMutability": "nonpayable",
      "type": "function",
      "signature": "0xc704deb8"
    },
    {
      "constant": false,
      "inputs": [
        {
          "name": "cnic",
          "type": "string"
        }
      ],
      "name": "getUserId",
      "outputs": [
        {
          "name": "",
          "type": "int256"
        }
      ],
      "payable": false,
      "stateMutability": "nonpayable",
      "type": "function",
      "signature": "0xdb1ef71f"
    },
    {
      "constant": true,
      "inputs": [
        {
          "name": "a",
          "type": "string"
        },
        {
          "name": "b",
          "type": "string"
        }
      ],
      "name": "compareStrings",
      "outputs": [
        {
          "name": "",
          "type": "bool"
        }
      ],
      "payable": false,
      "stateMutability": "view",
      "type": "function",
      "signature": "0xbed34bba"
    }
  ],
  "bytecode": "0x60806040526000805534801561001457600080fd5b50611571806100246000396000f3fe6080604052600436106100af576000357c0100000000000000000000000000000000000000000000000000000000900463ffffffff16806306661abd146100b4578063248da5be146100df5780632b70990c146101085780634c7def7b1461014557806359ae069b146101835780637e139241146101c057806386fa14b6146101fd578063a87d942c14610226578063bed34bba14610251578063c704deb81461028e578063db1ef71f146102cb575b600080fd5b3480156100c057600080fd5b506100c9610308565b6040516100d6919061143b565b60405180910390f35b3480156100eb57600080fd5b506101066004803603610101919081019061130d565b61030e565b005b34801561011457600080fd5b5061012f600480360361012a9190810190611290565b61037a565b60405161013c91906113e2565b60405180910390f35b34801561015157600080fd5b5061016c60048036036101679190810190611290565b610447565b60405161017a929190611404565b60405180910390f35b34801561018f57600080fd5b506101aa60048036036101a591908101906111f9565b6105b7565b6040516101b7919061143b565b60405180910390f35b3480156101cc57600080fd5b506101e760048036036101e291908101906112b9565b610685565b6040516101f491906113e2565b60405180910390f35b34801561020957600080fd5b50610224600480360361021f919081019061130d565b6108f0565b005b34801561023257600080fd5b5061023b61095c565b604051610248919061143b565b60405180910390f35b34801561025d57600080fd5b506102786004803603610273919081019061118d565b610965565b60405161028591906113ac565b60405180910390f35b34801561029a57600080fd5b506102b560048036036102b09190810190611290565b610a58565b6040516102c291906113e2565b60405180910390f35b3480156102d757600080fd5b506102f260048036036102ed919081019061114c565b610b25565b6040516102ff91906113c7565b60405180910390f35b60005481565b80600160008481526020019081526020016000206004016000600160008681526020019081526020016000206003015481526020019081526020016000208190555060016000838152602001908152602001600020600301600081548092919060010191905055505050565b6060806020604051908101604052806000815250905060008090505b600160008581526020019081526020016000206003015481101561043d576103ed826103e860016000888152602001908152602001600020600401600085815260200190815260200160002054610c3a565b610d93565b915061042e826040805190810160405280600181526020017f3a00000000000000000000000000000000000000000000000000000000000000815250610d93565b91508080600101915050610396565b5080915050919050565b6060806001600084815260200190815260200160002060000160016000858152602001908152602001600020600101818054600181600116156101000203166002900480601f01602080910402602001604051908101604052809291908181526020018280546001816001161561010002031660029004801561050b5780601f106104e05761010080835404028352916020019161050b565b820191906000526020600020905b8154815290600101906020018083116104ee57829003601f168201915b50505050509150808054600181600116156101000203166002900480601f0160208091040260200160405190810160405280929190818152602001828054600181600116156101000203166002900480156105a75780601f1061057c576101008083540402835291602001916105a7565b820191906000526020600020905b81548152906001019060200180831161058a57829003601f168201915b5050505050905091509150915091565b600060a0604051908101604052808581526020018481526020018381526020016000815260200160008152506001600080548152602001908152602001600020600082015181600001908051906020019061061392919061103d565b50602082015181600101908051906020019061063092919061103d565b50604082015181600201908051906020019061064d92919061103d565b506060820151816003015560808201518160050155905050600080815480929190600101919050555060016000540390509392505050565b606061073f82600160008681526020019081526020016000206002018054600181600116156101000203166002900480601f0160208091040260200160405190810160405280929190818152602001828054600181600116156101000203166002900480156107355780601f1061070a57610100808354040283529160200191610735565b820191906000526020600020905b81548152906001019060200180831161071857829003601f168201915b5050505050610965565b156108b1576108aa600160008581526020019081526020016000206000018054600181600116156101000203166002900480601f0160208091040260200160405190810160405280929190818152602001828054600181600116156101000203166002900480156107f15780601f106107c6576101008083540402835291602001916107f1565b820191906000526020600020905b8154815290600101906020018083116107d457829003601f168201915b5050505050600160008681526020019081526020016000206001018054600181600116156101000203166002900480601f0160208091040260200160405190810160405280929190818152602001828054600181600116156101000203166002900480156108a05780601f10610875576101008083540402835291602001916108a0565b820191906000526020600020905b81548152906001019060200180831161088357829003601f168201915b5050505050610d93565b90506108ea565b6040805190810160405280600181526020017f310000000000000000000000000000000000000000000000000000000000000081525090505b92915050565b80600160008481526020019081526020016000206004016000600160008681526020019081526020016000206003015481526020019081526020016000208190555060016000838152602001908152602001600020600501600081548092919060010191905055505050565b60008054905090565b6000816040516020018082805190602001908083835b6020831015156109a0578051825260208201915060208101905060208303925061097b565b6001836020036101000a03801982511681845116808217855250505050505090500191505060405160208183030381529060405280519060200120836040516020018082805190602001908083835b602083101515610a1457805182526020820191506020810190506020830392506109ef565b6001836020036101000a0380198251168184511680821785525050505050509050019150506040516020818303038152906040528051906020012014905092915050565b6060806020604051908101604052806000815250905060008090505b6001600085815260200190815260200160002060050154811015610b1b57610acb82610ac660016000888152602001908152602001600020600601600085815260200190815260200160002054610c3a565b610d93565b9150610b0c826040805190810160405280600181526020017f3a00000000000000000000000000000000000000000000000000000000000000815250610d93565b91508080600101915050610a74565b5080915050919050565b600080600054905060008090505b81811215610c0f57610bf384600160008481526020019081526020016000206001018054600181600116156101000203166002900480601f016020809104026020016040519081016040528092919081815260200182805460018160011615610100020316600290048015610be95780601f10610bbe57610100808354040283529160200191610be9565b820191906000526020600020905b815481529060010190602001808311610bcc57829003601f168201915b5050505050610965565b15610c02578092505050610c35565b8080600101915050610b33565b507fffffffffffffffffffffffffffffffffffffffffffffffffffffffffffffffff9150505b919050565b60606000821415610c82576040805190810160405280600181526020017f30000000000000000000000000000000000000000000000000000000000000008152509050610d8e565b600082905060005b600082141515610cb0578080600101915050600a82811515610ca857fe5b049150610c8a565b6060816040519080825280601f01601f191660200182016040528015610ce55781602001600182028038833980820191505090505b50905060006001830390505b600086141515610d8657600a86811515610d0757fe5b066030017f010000000000000000000000000000000000000000000000000000000000000002828280600190039350815181101515610d4257fe5b9060200101907effffffffffffffffffffffffffffffffffffffffffffffffffffffffffffff1916908160001a905350600a86811515610d7e57fe5b049550610cf1565b819450505050505b919050565b606080839050606083905060606040805190810160405280600181526020017f2c000000000000000000000000000000000000000000000000000000000000008152509050606060018351855101016040519080825280601f01601f191660200182016040528015610e145781602001600182028038833980820191505090505b5090506060819050600080905060008090505b8651811015610eda578681815181101515610e3e57fe5b9060200101517f010000000000000000000000000000000000000000000000000000000000000090047f0100000000000000000000000000000000000000000000000000000000000000028383806001019450815181101515610e9d57fe5b9060200101907effffffffffffffffffffffffffffffffffffffffffffffffffffffffffffff1916908160001a9053508080600101915050610e27565b50836000815181101515610eea57fe5b9060200101517f010000000000000000000000000000000000000000000000000000000000000090047f010000000000000000000000000000000000000000000000000000000000000002828751815181101515610f4457fe5b9060200101907effffffffffffffffffffffffffffffffffffffffffffffffffffffffffffff1916908160001a90535060008090505b855181101561102d578581815181101515610f9157fe5b9060200101517f010000000000000000000000000000000000000000000000000000000000000090047f0100000000000000000000000000000000000000000000000000000000000000028383806001019450815181101515610ff057fe5b9060200101907effffffffffffffffffffffffffffffffffffffffffffffffffffffffffffff1916908160001a9053508080600101915050610f7a565b5081965050505050505092915050565b828054600181600116156101000203166002900490600052602060002090601f016020900481019282601f1061107e57805160ff19168380011785556110ac565b828001600101855582156110ac579182015b828111156110ab578251825591602001919060010190611090565b5b5090506110b991906110bd565b5090565b6110df91905b808211156110db5760008160009055506001016110c3565b5090565b90565b600082601f83011215156110f557600080fd5b813561110861110382611483565b611456565b9150808252602083016020830185838301111561112457600080fd5b61112f8382846114e4565b50505092915050565b600061114482356114da565b905092915050565b60006020828403121561115e57600080fd5b600082013567ffffffffffffffff81111561117857600080fd5b611184848285016110e2565b91505092915050565b600080604083850312156111a057600080fd5b600083013567ffffffffffffffff8111156111ba57600080fd5b6111c6858286016110e2565b925050602083013567ffffffffffffffff8111156111e357600080fd5b6111ef858286016110e2565b9150509250929050565b60008060006060848603121561120e57600080fd5b600084013567ffffffffffffffff81111561122857600080fd5b611234868287016110e2565b935050602084013567ffffffffffffffff81111561125157600080fd5b61125d868287016110e2565b925050604084013567ffffffffffffffff81111561127a57600080fd5b611286868287016110e2565b9150509250925092565b6000602082840312156112a257600080fd5b60006112b084828501611138565b91505092915050565b600080604083850312156112cc57600080fd5b60006112da85828601611138565b925050602083013567ffffffffffffffff8111156112f757600080fd5b611303858286016110e2565b9150509250929050565b6000806040838503121561132057600080fd5b600061132e85828601611138565b925050602061133f85828601611138565b9150509250929050565b611352816114ba565b82525050565b611361816114c6565b82525050565b6000611372826114af565b8084526113868160208601602086016114f3565b61138f81611526565b602085010191505092915050565b6113a6816114d0565b82525050565b60006020820190506113c16000830184611349565b92915050565b60006020820190506113dc6000830184611358565b92915050565b600060208201905081810360008301526113fc8184611367565b905092915050565b6000604082019050818103600083015261141e8185611367565b905081810360208301526114328184611367565b90509392505050565b6000602082019050611450600083018461139d565b92915050565b6000604051905081810181811067ffffffffffffffff8211171561147957600080fd5b8060405250919050565b600067ffffffffffffffff82111561149a57600080fd5b601f19601f8301169050602081019050919050565b600081519050919050565b60008115159050919050565b6000819050919050565b6000819050919050565b6000819050919050565b82818337600083830152505050565b60005b838110156115115780820151818401526020810190506114f6565b83811115611520576000848401525b50505050565b6000601f19601f830116905091905056fea265627a7a7230582061439823f2ac374e547194eadd9203717a36187e6fcf412d378da95683a60fa66c6578706572696d656e74616cf50037",
  "source": "pragma solidity ^0.5.0;\npragma experimental ABIEncoderV2;\n\ncontract User {\n    uint public count = 0;\n    mapping(uint => User) users;     \n    struct User {\n        string name;\n        string CNIC;\n        string password;\n        uint challan_count;\n\t    mapping(uint=>uint) challans ;\n\t    uint vehicle_count;\n\t    mapping(uint=>uint) vehicles ;\n\t}\n\tfunction Login(uint _id, string memory _password) public returns(string memory) {\n\t    if(compareStrings(_password,users[_id].password)){\n    \treturn strConcat(users[_id].name,users[_id].CNIC);\n\t}else{\n\t\treturn \"1\";\n\t    }\n    }\n\t\n    function add_challan_to_user(uint _id,uint _challanNo) public {\n        users[_id].challans[users[_id].challan_count]= _challanNo;\n        users[_id].challan_count++;\n    }\n    function add_vehicle_to_user(uint _id,uint _vehicleNo) public {\n        users[_id].challans[users[_id].challan_count]= _vehicleNo;\n        users[_id].vehicle_count++;\n    }\n    function createUser(string memory a1,string memory a2,string memory a3) public returns(uint){\n        users[count]= User(a1,a2,a3,0,0);\n        count++;\n        return count-1;\n    }\n    function getUserChallans(uint _id) public returns(string memory) {\n        string memory ret_val=\"\";\n        for (uint i=0;i<users[_id].challan_count;i++){\n            ret_val=strConcat(ret_val,uint2str(users[_id].challans[i]));\n            ret_val=strConcat(ret_val,\":\");\n        }\n        return ret_val;\n    }\n    function getCount()public view returns(uint){\n        return count;\n    }\n    function getUserInformation(uint _id)public view returns(string memory,string memory){\n        return (users[_id].name,users[_id].CNIC);\n        \n    }\n    function getUserVehicle(uint _id) public returns(string memory) {\n        string memory ret_val=\"\";\n        for (uint i=0;i<users[_id].vehicle_count;i++){\n            ret_val=strConcat(ret_val,uint2str(users[_id].vehicles[i]));\n            ret_val=strConcat(ret_val,\":\");\n        }\n        return ret_val;\n    }\n    function getUserId(string memory cnic) public returns(int) {\n        int count1=int(count);\n        for (int i=0;i<count1;i++){\n            if (compareStrings(cnic,users[uint(i)].CNIC)){\n                return i;\n            }\n        }\n        return -1;\n    }\n    function strConcat(string memory _a, string memory _b, string memory _c, string memory _d) internal returns (string memory){\n        bytes memory _ba = bytes(_a);\n        bytes memory _bb = bytes(_b);\n        bytes memory _bc = bytes(_c);\n        bytes memory _bd = bytes(_d);\n        bytes memory _bcomma = bytes(\",\");\n        string memory abcd = new string(_ba.length + _bb.length + _bc.length + _bd.length+3 );\n        bytes memory babcde = bytes(abcd);\n        uint k = 0;\n        for (uint i = 0; i < _ba.length; i++) babcde[k++] = _ba[i];\n        babcde[k++]=_bcomma[0];\n        for (uint i = 0; i < _bb.length; i++) babcde[k++] = _bb[i];\n        babcde[k++]=_bcomma[0];\n        for (uint i = 0; i < _bc.length; i++) babcde[k++] = _bc[i];\n        babcde[k++]=_bcomma[0];\n        for (uint i = 0; i < _bd.length; i++) babcde[k++] = _bd[i];\n        return string(babcde);\n    }\n    function strConcat(string memory _a, string memory _b) internal returns (string memory){\n        bytes memory _ba = bytes(_a);\n        bytes memory _bb = bytes(_b);\n        bytes memory _bcomma = bytes(\",\");\n        string memory abcd = new string(_ba.length + _bb.length+1);\n        bytes memory babcde = bytes(abcd);\n        uint k = 0;\n        for (uint i = 0; i < _ba.length; i++) babcde[k++] = _ba[i];\n        babcde[_ba.length]=_bcomma[0];\n        for (uint i = 0; i < _bb.length; i++) babcde[k++] = _bb[i];\n        \n        return string(babcde);\n    }\n    function uint2str(uint _i) internal pure returns (string memory _uintAsString) {\n        if (_i == 0) {\n            return \"0\";\n        }\n        uint j = _i;\n        uint len;\n        while (j != 0) {\n            len++;\n            j /= 10;\n        }\n        bytes memory bstr = new bytes(len);\n        uint k = len - 1;\n        while (_i != 0) {\n            bstr[k--] = byte(uint8(48 + _i % 10));\n            _i /= 10;\n        }\n        return string(bstr);\n    }\n    function compareStrings (string memory a, string memory b) public view returns (bool) {\n        return (keccak256(abi.encodePacked((a))) == keccak256(abi.encodePacked((b))) );\n    }\n\n\n\n\n\n\n\n\n\n}",
  "sourcePath": "C:/Users/moeez/blockchain_code/src/contracts/User.sol",
  "compiler": {
    "name": "solc",
    "version": "0.5.0+commit.1d4f565a.Emscripten.clang"
  },
  "schemaVersion": "3.0.2",
  "updatedAt": "2019-12-10T05:56:31.993Z",
  "devdoc": {
    "methods": {}
  },
  "userdoc": {
    "methods": {}
  }
}