{
  "contractName": "Vehicle",
  "abi": [
    {
      "constant": true,
      "inputs": [],
      "name": "count",
      "outputs": [
        {
          "name": "",
          "type": "uint256"
        }
      ],
      "payable": false,
      "stateMutability": "view",
      "type": "function"
    },
    {
      "constant": true,
      "inputs": [],
      "name": "getCount",
      "outputs": [
        {
          "name": "",
          "type": "uint256"
        }
      ],
      "payable": false,
      "stateMutability": "view",
      "type": "function"
    },
    {
      "constant": true,
      "inputs": [
        {
          "name": "index",
          "type": "uint256"
        }
      ],
      "name": "getOwner",
      "outputs": [
        {
          "name": "",
          "type": "uint256"
        }
      ],
      "payable": false,
      "stateMutability": "view",
      "type": "function"
    },
    {
      "constant": false,
      "inputs": [
        {
          "name": "a1",
          "type": "string"
        },
        {
          "name": "a2",
          "type": "string"
        },
        {
          "name": "a3",
          "type": "string"
        },
        {
          "name": "a4",
          "type": "uint256"
        },
        {
          "name": "a5",
          "type": "string"
        },
        {
          "name": "a6",
          "type": "string"
        },
        {
          "name": "a7",
          "type": "string"
        },
        {
          "name": "oi",
          "type": "uint256"
        }
      ],
      "name": "addInformation",
      "outputs": [
        {
          "name": "",
          "type": "uint256"
        }
      ],
      "payable": false,
      "stateMutability": "nonpayable",
      "type": "function"
    },
    {
      "constant": false,
      "inputs": [
        {
          "name": "index",
          "type": "uint256"
        },
        {
          "name": "oi",
          "type": "uint256"
        }
      ],
      "name": "setOwner",
      "outputs": [],
      "payable": false,
      "stateMutability": "nonpayable",
      "type": "function"
    },
    {
      "constant": true,
      "inputs": [
        {
          "name": "index",
          "type": "uint256"
        }
      ],
      "name": "getInformation",
      "outputs": [
        {
          "name": "",
          "type": "string"
        },
        {
          "name": "",
          "type": "string"
        },
        {
          "name": "",
          "type": "string"
        },
        {
          "name": "",
          "type": "uint256"
        },
        {
          "name": "",
          "type": "string"
        },
        {
          "name": "",
          "type": "string"
        },
        {
          "name": "",
          "type": "string"
        }
      ],
      "payable": false,
      "stateMutability": "view",
      "type": "function"
    },
    {
      "constant": true,
      "inputs": [
        {
          "name": "reg_no",
          "type": "string"
        }
      ],
      "name": "getInformation",
      "outputs": [
        {
          "name": "",
          "type": "string"
        },
        {
          "name": "",
          "type": "string"
        },
        {
          "name": "",
          "type": "string"
        },
        {
          "name": "",
          "type": "uint256"
        },
        {
          "name": "",
          "type": "string"
        },
        {
          "name": "",
          "type": "string"
        },
        {
          "name": "",
          "type": "string"
        }
      ],
      "payable": false,
      "stateMutability": "view",
      "type": "function"
    },
    {
      "constant": true,
      "inputs": [
        {
          "name": "a",
          "type": "string"
        },
        {
          "name": "b",
          "type": "string"
        }
      ],
      "name": "compareStrings",
      "outputs": [
        {
          "name": "",
          "type": "bool"
        }
      ],
      "payable": false,
      "stateMutability": "view",
      "type": "function"
    }
  ],
  "bytecode": "0x60806040526000805534801561001457600080fd5b50611a12806100246000396000f3fe60806040526004361061008e576000357c0100000000000000000000000000000000000000000000000000000000900463ffffffff16806306661abd14610093578063648fb564146100be5780637acbfb65146104a2578063a87d942c146104e7578063bed34bba14610512578063c41a360a14610689578063eaa42568146106d8578063f9f482a4146109af575b600080fd5b34801561009f57600080fd5b506100a8610d13565b6040518082815260200191505060405180910390f35b3480156100ca57600080fd5b5061048c60048036036101008110156100e257600080fd5b81019080803590602001906401000000008111156100ff57600080fd5b82018360208201111561011157600080fd5b8035906020019184600183028401116401000000008311171561013357600080fd5b91908080601f016020809104026020016040519081016040528093929190818152602001838380828437600081840152601f19601f8201169050808301925050505050505091929192908035906020019064010000000081111561019657600080fd5b8201836020820111156101a857600080fd5b803590602001918460018302840111640100000000831117156101ca57600080fd5b91908080601f016020809104026020016040519081016040528093929190818152602001838380828437600081840152601f19601f8201169050808301925050505050505091929192908035906020019064010000000081111561022d57600080fd5b82018360208201111561023f57600080fd5b8035906020019184600183028401116401000000008311171561026157600080fd5b91908080601f016020809104026020016040519081016040528093929190818152602001838380828437600081840152601f19601f82011690508083019250505050505050919291929080359060200190929190803590602001906401000000008111156102ce57600080fd5b8201836020820111156102e057600080fd5b8035906020019184600183028401116401000000008311171561030257600080fd5b91908080601f016020809104026020016040519081016040528093929190818152602001838380828437600081840152601f19601f8201169050808301925050505050505091929192908035906020019064010000000081111561036557600080fd5b82018360208201111561037757600080fd5b8035906020019184600183028401116401000000008311171561039957600080fd5b91908080601f016020809104026020016040519081016040528093929190818152602001838380828437600081840152601f19601f820116905080830192505050505050509192919290803590602001906401000000008111156103fc57600080fd5b82018360208201111561040e57600080fd5b8035906020019184600183028401116401000000008311171561043057600080fd5b91908080601f016020809104026020016040519081016040528093929190818152602001838380828437600081840152601f19601f82011690508083019250505050505050919291929080359060200190929190505050610d19565b6040518082815260200191505060405180910390f35b3480156104ae57600080fd5b506104e5600480360360408110156104c557600080fd5b810190808035906020019092919080359060200190929190505050610e54565b005b3480156104f357600080fd5b506104fc610e73565b6040518082815260200191505060405180910390f35b34801561051e57600080fd5b5061066f6004803603604081101561053557600080fd5b810190808035906020019064010000000081111561055257600080fd5b82018360208201111561056457600080fd5b8035906020019184600183028401116401000000008311171561058657600080fd5b91908080601f016020809104026020016040519081016040528093929190818152602001838380828437600081840152601f19601f820116905080830192505050505050509192919290803590602001906401000000008111156105e957600080fd5b8201836020820111156105fb57600080fd5b8035906020019184600183028401116401000000008311171561061d57600080fd5b91908080601f016020809104026020016040519081016040528093929190818152602001838380828437600081840152601f19601f820116905080830192505050505050509192919290505050610e7c565b604051808215151515815260200191505060405180910390f35b34801561069557600080fd5b506106c2600480360360208110156106ac57600080fd5b8101908080359060200190929190505050610f6f565b6040518082815260200191505060405180910390f35b3480156106e457600080fd5b50610711600480360360208110156106fb57600080fd5b8101908080359060200190929190505050610f8f565b6040518080602001806020018060200188815260200180602001806020018060200187810387528e818151815260200191508051906020019080838360005b8381101561076b578082015181840152602081019050610750565b50505050905090810190601f1680156107985780820380516001836020036101000a031916815260200191505b5087810386528d818151815260200191508051906020019080838360005b838110156107d15780820151818401526020810190506107b6565b50505050905090810190601f1680156107fe5780820380516001836020036101000a031916815260200191505b5087810385528c818151815260200191508051906020019080838360005b8381101561083757808201518184015260208101905061081c565b50505050905090810190601f1680156108645780820380516001836020036101000a031916815260200191505b5087810384528a818151815260200191508051906020019080838360005b8381101561089d578082015181840152602081019050610882565b50505050905090810190601f1680156108ca5780820380516001836020036101000a031916815260200191505b50878103835289818151815260200191508051906020019080838360005b838110156109035780820151818401526020810190506108e8565b50505050905090810190601f1680156109305780820380516001836020036101000a031916815260200191505b50878103825288818151815260200191508051906020019080838360005b8381101561096957808201518184015260208101905061094e565b50505050905090810190601f1680156109965780820380516001836020036101000a031916815260200191505b509d505050505050505050505050505060405180910390f35b3480156109bb57600080fd5b50610a75600480360360208110156109d257600080fd5b81019080803590602001906401000000008111156109ef57600080fd5b820183602082011115610a0157600080fd5b80359060200191846001830284011164010000000083111715610a2357600080fd5b91908080601f016020809104026020016040519081016040528093929190818152602001838380828437600081840152601f19601f8201169050808301925050505050505091929192905050506113f7565b6040518080602001806020018060200188815260200180602001806020018060200187810387528e818151815260200191508051906020019080838360005b83811015610acf578082015181840152602081019050610ab4565b50505050905090810190601f168015610afc5780820380516001836020036101000a031916815260200191505b5087810386528d818151815260200191508051906020019080838360005b83811015610b35578082015181840152602081019050610b1a565b50505050905090810190601f168015610b625780820380516001836020036101000a031916815260200191505b5087810385528c818151815260200191508051906020019080838360005b83811015610b9b578082015181840152602081019050610b80565b50505050905090810190601f168015610bc85780820380516001836020036101000a031916815260200191505b5087810384528a818151815260200191508051906020019080838360005b83811015610c01578082015181840152602081019050610be6565b50505050905090810190601f168015610c2e5780820380516001836020036101000a031916815260200191505b50878103835289818151815260200191508051906020019080838360005b83811015610c67578082015181840152602081019050610c4c565b50505050905090810190601f168015610c945780820380516001836020036101000a031916815260200191505b50878103825288818151815260200191508051906020019080838360005b83811015610ccd578082015181840152602081019050610cb2565b50505050905090810190601f168015610cfa5780820380516001836020036101000a031916815260200191505b509d505050505050505050505050505060405180910390f35b60005481565b6000610100604051908101604052808a81526020018981526020018881526020018781526020018681526020018581526020018481526020018381525060016000805481526020019081526020016000206000820151816000019080519060200190610d86929190611941565b506020820151816001019080519060200190610da3929190611941565b506040820151816002019080519060200190610dc0929190611941565b50606082015181600301556080820151816004019080519060200190610de7929190611941565b5060a0820151816005019080519060200190610e04929190611941565b5060c0820151816006019080519060200190610e21929190611941565b5060e082015181600701559050506000808154809291906001019190505550600160005403905098975050505050505050565b8060016000848152602001908152602001600020600701819055505050565b60008054905090565b6000816040516020018082805190602001908083835b602083101515610eb75780518252602082019150602081019050602083039250610e92565b6001836020036101000a03801982511681845116808217855250505050505090500191505060405160208183030381529060405280519060200120836040516020018082805190602001908083835b602083101515610f2b5780518252602082019150602081019050602083039250610f06565b6001836020036101000a0380198251168184511680821785525050505050509050019150506040516020818303038152906040528051906020012014905092915050565b600060016000838152602001908152602001600020600701549050919050565b60608060606000606080606060016000898152602001908152602001600020600001600160008a8152602001908152602001600020600101600160008b8152602001908152602001600020600201600160008c815260200190815260200160002060030154600160008d8152602001908152602001600020600401600160008e8152602001908152602001600020600501600160008f8152602001908152602001600020600601868054600181600116156101000203166002900480601f0160208091040260200160405190810160405280929190818152602001828054600181600116156101000203166002900480156110cb5780601f106110a0576101008083540402835291602001916110cb565b820191906000526020600020905b8154815290600101906020018083116110ae57829003601f168201915b50505050509650858054600181600116156101000203166002900480601f0160208091040260200160405190810160405280929190818152602001828054600181600116156101000203166002900480156111675780601f1061113c57610100808354040283529160200191611167565b820191906000526020600020905b81548152906001019060200180831161114a57829003601f168201915b50505050509550848054600181600116156101000203166002900480601f0160208091040260200160405190810160405280929190818152602001828054600181600116156101000203166002900480156112035780601f106111d857610100808354040283529160200191611203565b820191906000526020600020905b8154815290600101906020018083116111e657829003601f168201915b50505050509450828054600181600116156101000203166002900480601f01602080910402602001604051908101604052809291908181526020018280546001816001161561010002031660029004801561129f5780601f106112745761010080835404028352916020019161129f565b820191906000526020600020905b81548152906001019060200180831161128257829003601f168201915b50505050509250818054600181600116156101000203166002900480601f01602080910402602001604051908101604052809291908181526020018280546001816001161561010002031660029004801561133b5780601f106113105761010080835404028352916020019161133b565b820191906000526020600020905b81548152906001019060200180831161131e57829003601f168201915b50505050509150808054600181600116156101000203166002900480601f0160208091040260200160405190810160405280929190818152602001828054600181600116156101000203166002900480156113d75780601f106113ac576101008083540402835291602001916113d7565b820191906000526020600020905b8154815290600101906020018083116113ba57829003601f168201915b505050505090509650965096509650965096509650919395979092949650565b60608060606000606080606060008090505b600054811015611934576114cb89600160008481526020019081526020016000206000018054600181600116156101000203166002900480601f0160208091040260200160405190810160405280929190818152602001828054600181600116156101000203166002900480156114c15780601f10611496576101008083540402835291602001916114c1565b820191906000526020600020905b8154815290600101906020018083116114a457829003601f168201915b5050505050610e7c565b15611927576001600082815260200190815260200160002060000160016000838152602001908152602001600020600101600160008481526020019081526020016000206002016001600085815260200190815260200160002060030154600160008681526020019081526020016000206004016001600087815260200190815260200160002060050160016000888152602001908152602001600020600601868054600181600116156101000203166002900480601f0160208091040260200160405190810160405280929190818152602001828054600181600116156101000203166002900480156116005780601f106115d557610100808354040283529160200191611600565b820191906000526020600020905b8154815290600101906020018083116115e357829003601f168201915b50505050509650858054600181600116156101000203166002900480601f01602080910402602001604051908101604052809291908181526020018280546001816001161561010002031660029004801561169c5780601f106116715761010080835404028352916020019161169c565b820191906000526020600020905b81548152906001019060200180831161167f57829003601f168201915b50505050509550848054600181600116156101000203166002900480601f0160208091040260200160405190810160405280929190818152602001828054600181600116156101000203166002900480156117385780601f1061170d57610100808354040283529160200191611738565b820191906000526020600020905b81548152906001019060200180831161171b57829003601f168201915b50505050509450828054600181600116156101000203166002900480601f0160208091040260200160405190810160405280929190818152602001828054600181600116156101000203166002900480156117d45780601f106117a9576101008083540402835291602001916117d4565b820191906000526020600020905b8154815290600101906020018083116117b757829003601f168201915b50505050509250818054600181600116156101000203166002900480601f0160208091040260200160405190810160405280929190818152602001828054600181600116156101000203166002900480156118705780601f1061184557610100808354040283529160200191611870565b820191906000526020600020905b81548152906001019060200180831161185357829003601f168201915b50505050509150808054600181600116156101000203166002900480601f01602080910402602001604051908101604052809291908181526020018280546001816001161561010002031660029004801561190c5780601f106118e15761010080835404028352916020019161190c565b820191906000526020600020905b8154815290600101906020018083116118ef57829003601f168201915b50505050509050975097509750975097509750975050611936565b8080600101915050611409565b505b919395979092949650565b828054600181600116156101000203166002900490600052602060002090601f016020900481019282601f1061198257805160ff19168380011785556119b0565b828001600101855582156119b0579182015b828111156119af578251825591602001919060010190611994565b5b5090506119bd91906119c1565b5090565b6119e391905b808211156119df5760008160009055506001016119c7565b5090565b9056fea165627a7a723058203934bb0db12a237bdbc9cf91c0bce1e67aa5bbc9c9643d11d9772098bf8c456b0029",
  "source": "pragma solidity ^0.5.0;\ncontract Vehicle {\n    uint public count = 0;\n    mapping(uint => information) info_table;\n    \n    struct information{\n        string registration_number;\n        string make_name;\n        string color;\n        uint vehicle_price;\n        \n        string engine_no;\n        string chasis_no;\n        string model;\n        uint owner_id;        \n        \n    }\n    function getCount()public view returns(uint){\n        return count;\n    }\n    function getOwner(uint index) public view returns(uint) {\n        return info_table[index].owner_id;\n        \n    }\n    function addInformation(string memory a1,string memory a2,string memory a3,uint a4,string memory a5,string memory a6,string memory a7,uint oi) public returns  (uint){\n        info_table[count] = information(a1,a2,a3,a4,a5,a6,a7,oi);\n        count++;\n        return count-1;\n    }\n    function setOwner(uint index,uint oi) public{\n        info_table[index].owner_id=oi;\n    }\n    function getInformation(uint index) public view returns(string memory,string memory,string memory,uint,string memory,string memory,string memory) {\n        return (info_table[index].registration_number,info_table[index].make_name,info_table[index].color,info_table[index].vehicle_price,info_table[index].engine_no,info_table[index].chasis_no,info_table[index].model);\n    }\n    \n    \n    function getInformation(string memory reg_no) public view returns(string memory,string memory,string memory,uint,string memory,string memory,string memory){\n        for(uint i=0;i<count;i++){\n            if (compareStrings(reg_no,info_table[i].registration_number)){\n                return (info_table[i].registration_number,info_table[i].make_name,info_table[i].color,info_table[i].vehicle_price,info_table[i].engine_no,info_table[i].chasis_no,info_table[i].model);\n            }\n        }\n        \n    }\n    \n    function compareStrings (string memory a, string memory b) public view returns (bool) {\n        return (keccak256(abi.encodePacked((a))) == keccak256(abi.encodePacked((b))) );\n    }   \n}\n\n    \n",
  "sourcePath": "C:/Users/moeez/blockchain_code/src/contracts/Vehicle.sol",
  "compiler": {
    "name": "solc",
    "version": "0.5.0+commit.1d4f565a.Emscripten.clang"
  },
  "schemaVersion": "3.0.2",
  "updatedAt": "2019-11-20T01:23:47.396Z",
  "devdoc": {
    "methods": {}
  },
  "userdoc": {
    "methods": {}
  }
}